:020000040800F2
:10000000480E0020A1010008F1150008B7140008EF
:10001000ED1500086B0B00080D1E00080000000025
:1000200000000000000000000000000009190008A6
:10003000650C000800000000A5160008F91900086A
:10004000BB010008BB010008BB010008BB010008A0
:10005000BB010008BB010008BB010008BB01000890
:10006000BB010008BB010008BB010008BB01000880
:10007000BB010008BB010008BB010008BB01000870
:10008000BB010008BB010008BB010008BB01000860
:10009000BB010008BB010008BB010008BB01000850
:1000A000BB010008BB010008BB010008BB01000840
:1000B000BB010008BB010008BB010008BB01000830
:1000C000BB010008BB010008BB010008BB01000820
:1000D000BB010008591A0008BB010008D51A000826
:1000E000BB010008BB010008BB010008BB01000800
:1000F000BB010008BB010008BB010008BB010008F0
:10010000BB010008BB010008BB010008BB010008DF
:10011000BB010008BB010008BB010008BB010008CF
:10012000BB010008BB010008BB010008BB010008BF
:10013000BB010008BB010008BB010008BB010008AF
:10014000BB010008BB010008BB010008BB0100089F
:10015000BB010008BB010008BB010008BB0100088F
:10016000BB010008BB010008BB010008BB0100087F
:10017000BB010008BB010008BB010008BB0100086F
:10018000BB010008BB010008DFF810D000F00CFC38
:1001900000480047C92A0008AFF30080480E00203D
:1001A0000648804706480047FEE7FEE7FEE7FEE711
:1001B000FEE7FEE7FEE7FEE7FEE7FEE7FD190008C3
:1001C0008901000840EA01039B0703D009E008C940
:1001D000121F08C0042AFAD203E011F8013B00F80C
:1001E000013B521EF9D27047D2B201E000F8012B58
:1001F000491EFBD270470022F6E710B513460A46A7
:1002000004461946FFF7F0FF204610BD30B50546FD
:100210002A460B4612F8010B13F8014B08B1A04215
:10022000F8D01CB1002802D06D1CF1E7284630BD83
:10023000CAB2401E10F8011F8A4202D00029F9D12B
:1002400000207047421C10F8011B0029FBD1801AC6
:100250007047034611F8012B00F8012B002AF9D151
:100260001846704780EA010210B502F000434000D2
:1002700022D04A001FD0010E01EB1261C0F35600DC
:10028000C2F3560240F4000042F40002A0FB022038
:1002900000047F39140400D0401C50EA124001D4FD
:1002A0004000491EC2B20C0604EBD010401C4008AE
:1002B000802A02D003E0002010BD20F001000029B8
:1002C00000DA0020184310BD30B480EA010202F0C9
:1002D000004530F0004221F0004013D090B1C30D32
:1002E000D40DC2F31601C0F31600E41A41F4000164
:1002F00040F400027D34914201D3641C00E04900C7
:10030000002C02DA30BC002070474FF400000023BC
:10031000914201D3891A034340084FEA4101F7D1C2
:1003200051B1914202D14FF0004105E002D24FF0AD
:10033000010101E06FF0010103EBC450284430BC1F
:1003400000F016BA2DE9FE4F804681EA0300C00F87
:100350000C46009021F0004123F00045B8EB02006C
:10036000A94105D24046214690461C460B4602460E
:1003700023F00040104347D0270DC7F30A00C3F312
:100380000A510290401A019040286BDAC3F313001F
:1003900040F4801B0098924620B10023D2EB030A60
:1003A00063EB0B0B01985946C0F14002504600F038
:1003B000AEF906460D4650465946019A00F0C6F978
:1003C00010EB08006141002487EA115284EAE773C8
:1003D0001A4340D0009A62B3019A012A4FEA0752A9
:1003E00015DC001B61EB02014FF0004202EA0752EC
:1003F000CDE90042001C41F5801132462B4600F049
:10040000FDF903B0BDE8F08F40462146F9E7001B37
:1004100061EB0201001C41F5801300185B412018BC
:10042000A2F5001747EB030140EAD570B6196D41FC
:1004300011E06D084FEA360645EAC0754FEA0752EB
:10044000001B61EB0201001C41F5801149084FEAD5
:1004500030000019514132462B4603B0BDE8F04F41
:1004600000F0BDB90098012240000023D0EB020249
:1004700063EBE073009821464FEAE074B8EB0000AC
:1004800061EB0401E9E783F000435BE781F00041A1
:1004900058E72DE9FE4F81EA030404F0004421F0FF
:1004A000004100944FF0000B23F0004350EA010498
:1004B0005ED052EA03045BD0C3F30A54C1F30A5579
:1004C0002C44A4F2F3340194A0FB0254C1F31301B1
:1004D00041F48011C3F3130343F4801301FB02447E
:1004E00000FB034E840A970A44EA815447EA835783
:1004F000A4FB076802958D0A05FB07854FEA932C3C
:1005000004FB0C542705029D4FEA065847EA1637AC
:10051000B5EB08056EEB070C870E920E47EA8117C4
:1005200042EA8312A7FB0201B6EB0B0164EB000465
:100530002B0D43EA0C335E1844EB1C50DA4651464F
:10054000E7FB0201C5F313044FEA0B3343EA1453EC
:100550004FEA0432019C43EA0603A4F10C0402941E
:10056000009CCDE900B400F049F903B0BDE8F08F7C
:1005700000200146F9E796230022114600F001B958
:100580000EB5C10F80EAE0700844CA07002140F2AE
:1005900033438DE80E000A460B4600F02FF903B0F6
:1005A00000BD0EB540F2334102910021CDE90011AA
:1005B0000A460B4600F022F903B000BD70B5C1F346
:1005C0000A5201F000450024C1F3130140F2FF3349
:1005D00041F480119A4201DA002070BD40F23343A9
:1005E0009A42A2F2334203DC524200F09FF800E04C
:1005F00090402C43F1D0404270BD00F0004230F0FA
:1006000000400AD0C10D01F56071C0F3160042EA46
:100610000151C2084007114370470020014670474E
:1006200030B5041E71F1000404DB4FF00044404279
:1006300064EB0101141E73F1000405DB1C464FF04E
:100640000043524263EB04038B4208BF824230BD39
:1006500030B5041E71F1000404DB4FF00044404249
:1006600064EB0101141E73F1000405DB1C464FF01E
:100670000043524263EB0403994208BF904230BDED
:1006800030B50B46014600202022012409E021FA62
:1006900002F59D4205D303FA02F5491B04FA02F55F
:1006A0002844151EA2F10102F1DC30BD2DE9F05FF6
:1006B0000546002092469B468846064681464024D1
:1006C0001BE0284641464746224600F02FF8534695
:1006D0005A46C01A914110D311461846224600F0DE
:1006E00016F82D1A67EB01084F462246012000211B
:1006F00000F00DF817EB00094E41201EA4F1010493
:10070000DFDC484631462A464346BDE8F09F202AB2
:1007100004DB203A00FA02F1002070479140C2F158
:10072000200320FA03F3194390407047202A04DB8A
:10073000203A21FA02F00021704721FA02F3D0405A
:10074000C2F120029140084319467047202A06DB77
:10075000CB17203A41FA02F043EAE07306E041FA8F
:1007600002F3D040C2F1200291400843194670477D
:100770000029A8BF7047401C490008BF20F00100B5
:10078000704710B4B0FA80FC00FA0CF050EA010493
:1007900004BF10BC704749B1CCF1200421FA04F425
:1007A00011FA0CF118BF012121430843A3EB0C01FE
:1007B000CB1D4FEA00614FEA102042BF002010BC61
:1007C000704700EBC35010440029A4BF10BC704711
:1007D000401C490008BF20F0010010BC704710B554
:1007E000141E73F1000408DA401C41F10001921854
:1007F0005B411A4301D120F0010010BD2DE9F04DFD
:1008000092469B4611B1B1FA81F202E0B0FA80F251
:1008100020329046FFF77BFF04460F4640EA0A006D
:1008200041EA0B0153465A46084313D0114653EA96
:10083000010019D0C8F140025046FFF777FF054686
:100840000E46504659464246FFF761FF084305D021
:10085000012004E020463946BDE8F08D0020054324
:1008600046EAE0762C4337430A986305E40AA0EB96
:1008700008000022FD0A44EA47540A3002D500204D
:100880000146E9E7010510196941DDE9084500194C
:100890006941BDE8F04DA2E72DE9F04D81EA03047E
:1008A00004F0004B21F0004514464FF0000A23F0FD
:1008B000004150EA050220D054EA01021DD0C5F3E0
:1008C0000A570246C5F31303C1F31300C1F30A56D6
:1008D00040F4801543F48013A7EB0608101BD6469E
:1008E00008F2FD3873EB050002D308F1010801E0BE
:1008F00092185B41B8F1000F03DA00200146BDE811
:10090000F08D00204FF48011064684460EE0171B40
:1009100073EB050705D3121B63EB050306434CEA93
:10092000010C49084FEA300092185B4150EA010778
:10093000EDD152EA030012D082EA040083EA0501F5
:10094000084305D0101BAB4106D20122002306E06C
:1009500000224FF0004302E06FF0010253101AEB47
:1009600006004CEB085110EB0A0041EB0B01BDE80F
:10097000F04DFFF734BFC1F30A52C1F3130140F247
:10098000FF3341F480119A4202DA00200146704799
:1009900040F233439A42A2F2334202DC5242FFF762
:1009A000C5BEFFF7B4BE0000064C074D06E0E06888
:1009B00040F0010394E8070098471034AC42F6D3A6
:1009C000FFF7E6FB703700089037000821B1826816
:1009D00042F00102826003E0826822F0010282603C
:1009E000704700000021084A1168084A1140D0E908
:1009F00000231A4383681A43C3681A431143044A05
:100A0000C2F804137047000004230140E030FCFFEB
:100A10000020014021B1826842F48072826003E0CC
:100A2000826822F480728260704721B1826842F449
:100A30000072826003E0826822F400728260704774
:100A400030B50246002000235068104C20400D793C
:100A50000C6844EA05242043506090680C4C204008
:100A6000D1E903542C438D682C434D7944EA450465
:100A700020439060D06A20F470000C7D641EE4B2C4
:100A8000234340EA0350D06230BD0000FFFEFFFC6C
:100A9000FDF7FFC0F0B504460D4600200021092DEA
:100AA00011DDE068A5F10A0606EB4607072606FAFF
:100AB00007F18843A5F10A0606EB460603FA06F19C
:100AC0000843E0600CE0206905EB4507072606FABD
:100AD00007F1884305EB450603FA06F10843206158
:100AE000072A0FDA606B561E06EB86071F2606FAEA
:100AF00007F18843561E06EB860605FA06F1084301
:100B0000606322E00D2A0FDA206BD61F06EB860702
:100B10001F2606FA07F18843D61F06EB860605FA5C
:100B200006F10843206310E0E06AA2F10D0606EB2F
:100B300086071F2606FA07F18843A2F10D0606EB89
:100B4000860605FA06F10843E062F0BD816841F0CF
:100B500080418160704700210160017141718160B5
:100B6000C160016101210175704700BFFEE700000F
:100B70000748006840F0807005490860002005497A
:100B800048600846006840F00100086070470000B7
:100B9000FCED00E0001000E00148406870470000F4
:100BA000001000E031B5002310480068104DB0FB84
:100BB000F5F0009D00FB05F400BFFFF7EDFF0246D6
:100BC00011E0FFF7E9FF014691420CD0914202D9B2
:100BD000881A034403E0C2F1FF30084403440A4684
:100BE000A34200D300E0ECE700BF38BD00000020C6
:100BF00040420F0021B1026842F00102026003E0AE
:100C0000026822F0010202607047000010B5002265
:100C10000268134B1A40CC680B6823434C6923438A
:100C20008C692343CC6923430C6A23434C6A2343D6
:100C30008C6A23434C6B23438C6B23431A4302601F
:100C4000426922F00702D1E90B3423431A4342617F
:100C50000B6943604B6883608B68C36010BD000004
:100C60003F801CF07047000000B587B001210846A6
:100C700000F01AFD0121102000F036FD07220A21A4
:100C8000244800F0F1FB07220921224800F0ECFB88
:100C900000208DF81A0001208DF81B0002208DF82D
:100CA00018000002059002208DF8190005A91948C6
:100CB00000F092FB02208DF818004002059005A973
:100CC000144800F089FB4FF4E13001900020ADF8AA
:100CD0000800ADF80A00ADF80C00ADF810000C20CB
:100CE000ADF80E0001A90C4800F09AFF01210A4856
:100CF00000F02EFF00F07DFC012240F22551064855
:100D000000F069FF012240F22441034800F063FF34
:100D100007B000BD000002400010014010B50024E3
:100D20004FF40041114800F0C4FB11A001F094F809
:100D30001448FFF737FF15E0214613A001F08CF8A7
:100D40004FF4FA73002217A117A000F041F828B160
:100D5000214616A001F080F8012010BD00F0CAF96C
:100D6000601CC4B20A2CE7DB0020F6E70018024042
:100D70000D0A4154E6B58BE8AF952E2E2E2E2E0D82
:100D80000A00000080841E000D0A4154E6B58BE87D
:100D9000AF95E6ACA1E695B02025642E2E2E2E2E22
:100DA0002E0D0A004F4B0000415400000D0A415423
:100DB000E6B58BE8AF95E590AFE58AA8E68890E5C3
:100DC0008A9F2025642E2E2E2E2E2E0D0A00000026
:100DD0002DE9F04106460C4615461F462748B0F857
:100DE00000046FF30E002549A1F80004324624A147
:100DF000254800F088FF1CB915B90120BDE8F08135
:100E00004FF47A7107FB01F0FFF7CCFE00201B497D
:100E1000B1F80014C1F30E01184A505411461BA03A
:100E200001F01AF8B4B1ADB121461448FFF7EEF95C
:100E300008B1012000E0002040B929460F48FFF723
:100E4000E5F908B1012000E0002008B10120D5E754
:100E50000020D3E744B121460848FFF7D7F908B18D
:100E60000120CBE70020C9E729460448FFF7CEF967
:100E700008B10120C2E70020C0E7000040000020C8
:100E800025730D0A00000000004800402573000093
:100E900000B58BB006A101A800F0EEFF4FF4FA7385
:100EA000002208A101A8FFF793FF0BB000BD0000CE
:100EB00041542B4357444843505F4355523D312CD6
:100EC000310000004F4B000010B586B004460CB155
:100ED000012000E00020024606A101A800F0CCFF9E
:100EE0004FF4FA73002207A101A8FFF771FF06B0C3
:100EF00010BD000041542B4349504D55583D2564C9
:100F0000000000004F4B00001CB50121102000F034
:100F1000CBFB0420009000208DF8060001208DF806
:100F200007008DF8040002208DF805006946074887
:100F300000F052FA0121402000F0B6FB4FF40040CF
:100F400000906946024800F047FA1CBD00100240BC
:100F50000018024010B5FFF7D7FF00F0ABF94FF4CF
:100F60000041044800F0A5FA0421034800F0A1FA6A
:100F700010BD0000001802400010024030B59FB0C4
:100F800004460D462B46224606A101A800F074FF38
:100F900041F28833002208A101A8FFF719FF1FB012
:100FA00030BD000041542B43574A41503D22257328
:100FB000222C2225732200004F4B0000F0B5B9B05F
:100FC00006460F4614461D46642120A8FFF713F974
:100FD00016B1012E10D107E03B4614A214A120A89F
:100FE000009400F049FF08E03B4615A210A120A89C
:100FF000009400F041FF00E000BF00BF052D06DABD
:1010000020AB2A460FA102A800F036FF04E020AA78
:1010100011A102A800F030FF4FF47A6312A216A1CA
:1010200002A8FFF7D5FE39B0F0BD000054435000D0
:10103000222573222C222573222C25730000000008
:101040005544500041542B43495053544152543D50
:1010500025642C257300000041542B434950535400
:101060004152543D25730000414C524541592043A3
:101070004F4E4E45435400004F4B000010B5044600
:1010800024B1012C0AD0022C18D10FE040F6C41371
:101090000BA20EA10EA0FFF79BFE10BD40F6C413DD
:1010A00007A20AA10DA0FFF793FEF6E740F6C413CE
:1010B00003A206A10CA0FFF78BFEEEE70020ECE7F1
:1010C0006E6F206368616E67650000004F4B000023
:1010D00041542B43574D4F44453D310041542B4320
:1010E000574D4F44453D320041542B43574D4F44DB
:1010F000453D330010B54FF40041064800F0D7F9E4
:101100000548FFF74FFD4FF40041024800F0D1F9C8
:1011100010BD00000018024020A1070010B522A059
:1011200000F09AFE28A000F097FE04212D4800F060
:10113000C0F900BFFFF7F2FD0028FBD000BFFFF7AA
:10114000A7FE0028FBD028A000F086FE00BF0020EC
:10115000FFF794FF0028FAD02DA000F07DFE00BF1D
:1011600033A136A0FFF70AFF0028F9D000BF002006
:10117000FFF7AAFE0028FAD033A000F06DFE00BFF2
:10118000052339A23AA10020FFF718FF0028F7D065
:1011900000BF00F0FBF80028FBD039A000F05CFE97
:1011A0003EA000F059FE10BD0D0AE6ADA3E59CA8D7
:1011B000E9858DE7BDAE2045535038323636202EB6
:1011C0002E2E2E2E2E0D0A000D0AE4BDBFE883BD83
:1011D0002045535038323636202E2E2E2E2E2E0DF0
:1011E0000A000000001002400D0AE6ADA3E59CA82D
:1011F000E9858DE7BDAEE5B7A5E4BD9CE6A8A1E510
:10120000BC8F20535441202E2E2E2E2E2E0D0A0040
:101210000D0AE6ADA3E59CA8E8BF9EE68EA5205783
:10122000694669202E2E2E2E2E2E0D0A000000005B
:10123000686269736862697300000000484249533C
:101240002D574C414E0000000D0AE6ADA3E59CA8C9
:10125000E8BF9EE68EA520536572766572202E2E1D
:101260002E2E2E2E0D0A00003830303000000000E7
:101270003137322E3136382E3131322E37310000AF
:101280000D0AE9858DE7BDAE20455350383236361C
:1012900020E5AE8CE6AF950D0A0000000D0AE5BC16
:1012A00080E5A78BE9808FE4BCA02E2E2E2E2E2E5B
:1012B0000D0A000000B587B00121880400F004FA8F
:1012C0000121022000F0F0F94FF480600590002029
:1012D0008DF81A0001208DF81B0002208DF81800EF
:1012E0008DF8190005A91D4800F076F84FF400604C
:1012F000059005A9194800F06FF807220A21174840
:1013000000F0B2F807220B21144800F0ADF84FF4BA
:10131000E13001900020ADF80800ADF80A00ADF80A
:101320000C00ADF810000C20ADF80E0001A90C481F
:1013300000F076FC012240F22551094800F04BFCF8
:10134000012240F22441064800F045FC00F00AF872
:101350000121034800F0FCFB07B000BD000402407F
:101360000048004008B54FF4A06000F091F9272034
:101370008DF8000000208DF801008DF8020001209A
:101380008DF80300684600F047F908BD10B54FF42A
:10139000FA73002207A108A0FFF71AFD08B9002080
:1013A00010BD4FF4FA7308A202A108A0FFF710FDC8
:1013B000F6E700004F4B000041542B4349504D4F7E
:1013C00044453D31000000003E00000041542B43E5
:1013D000495053454E440000F0B50A460021002311
:1013E000002400BF3DE0012505FA01F3156805EA78
:1013F00003049C4234D105684F000326BE40B54328
:10140000056015794E00B5400668354305601579CD
:10141000012D02D01579022D16D185684F000326C3
:10142000BE40B543856055794E00B540866835436A
:101430008560456801268E40B543456045689679CC
:101440008E40B6B235434560C5684F000326BE40A6
:10145000B543C560D5794E00B540C6683543C56013
:10146000491C1029BFD3F0BDF0B5002300244D075F
:10147000ED0E02FA05F3CE1000F1200555F82650C6
:101480004E07F70E0F26BE40B543CF1000F12006E1
:1014900046F82750CE1000F1200555F8265045EAB1
:1014A0000304CE1000F1200545F82640F0BD41832D
:1014B00070470183704700BFFEE700002DE9F04749
:1014C0000546012621480078401C2049087008463E
:1014D0000078642801DD0020087001F07BF9814666
:1014E0001A480078FFF75DF8074601F061F9824677
:1014F000524617A1484601F043F92846FFF77DF808
:10150000074601F055F98246524612A1484601F0BD
:1015100037F93046FFF734F8074601F049F98246BB
:10152000524610A1484601F02BF9484601F098F9BF
:10153000044621460FA000F08FFC484601F054F904
:10154000204601F067FA0024BDE8F087260000205D
:1015500041000000E6A8A1E68B9FE4BFA1E58FB79C
:1015600000000000E695B0E5AD97E4BFA1E58FB7B8
:1015700000000000E58F91E980816A736F6EE4BF1F
:10158000A1E681AF3A0A2025730000001CB50121B5
:10159000202000F089F84020009001208DF8040000
:1015A00000208DF8060001208DF8070000208DF83E
:1015B000050069460C48FFF70FFF80200090694640
:1015C0000948FFF709FF4FF480700090694606480C
:1015D000FFF702FF4020044918310880802008806E
:1015E000400008801CBD00000014024000BFFEE760
:1015F000704708B54FF4A06000F04AF825208DF838
:10160000000001208DF801008DF802008DF8030024
:10161000684600F001F808BD70B5002100230F22D4
:10162000C4781CB3174C246804F4E064C4F5E06487
:10163000C4F30721C1F10404E3B20A4144789C4099
:10164000E1B28478144021430C07210E0E4C05783A
:101650006155047804F01F050124AC4005786D1134
:10166000AD0005F1E025C5F8004109E0047804F07B
:101670001F050124AC40054D0678761145F826403B
:1016800070BD00000CED00E000E400E080E100E04F
:1016900002490143024A1160704700000000FA0548
:1016A0000CED00E07047000029B1064A12680243C1
:1016B000044B1A6004E0034A12688243014B1A602B
:1016C000704700003038024029B1064A12680243D0
:1016D000044B1A6004E0034A12688243014B1A600B
:1016E000704700004038024029B1064A12680243A0
:1016F000044B1A6004E0034A12688243014B1A60EB
:101700007047000044380240F0B500210022002458
:10171000022500260223324F3F6807F00C0121B159
:10172000042905D0082937D105E02E4F076036E09F
:101730002D4F076033E02A4F3F1F3F68C7F38056A5
:10174000274F3F1F3F6807F03F036EB1264FB7FB9F
:10175000F3F7DFF88CC0ACF1040CDCF800C0CCF37C
:10176000881C07FB0CF40CE01E4FB7FBF3F7DFF807
:1017700070C0ACF1040CDCF800C0CCF3881C07FB93
:101780000CF4174F3F1F3F68C7F301477F1C7D00D4
:10179000B4FBF5F7076002E0124F076000BF00BF1F
:1017A0000F4F3F6807F0F0010909104F7A5C076896
:1017B000D74047600A4F3F6807F4E051890A0B4F52
:1017C0007A5C4768D7408760054F3F6807F46041FF
:1017D000490B064F7A5C4768D740C760F0BD0000F0
:1017E000083802400024F40040787D0114000020F5
:1017F0001CB501210220FFF757FF022000900320B3
:101800008DF8040000208DF8070069460148FFF7B5
:10181000E3FD1CBD0004024000B599B0012108029F
:10182000FFF762FF01218805FFF73EFF30480B906C
:1018300030480C9000200D9001200E9000200F9059
:1018400010904FF40060119080001290401113909E
:10185000400214900020159001201690002017904F
:1018600018900A900AA92448FFF7D0F901212248CC
:10187000FFF7C0F9002000904FF480300190002065
:10188000029003906846FFF7ADF804A8FFF763F9EC
:10189000002004908DF8140001208DF81500002020
:1018A00006900790089001208DF8240004A91048A4
:1018B0004C38FFF7C5F80023012209210C484C38A9
:1018C000FFF7E8F801210A484C38FFF7AEF801218C
:1018D00007484C38FFF79EF8012105484C38FFF7C0
:1018E00075F803484C38FFF731F919B000BD000016
:1018F0004C200140240000201064024010B5FFF786
:1019000077FFFFF789FF10BD704700000CB500207E
:10191000019000903448006840F4803032490860FB
:1019200000BF3148006800F4003000900198401C6E
:101930000190009818B90198B0F5A04FF1D12A484C
:10194000006800F4003010B10120009001E0002098
:1019500000900098012846D123484030006840F0AC
:1019600080502149403108602048006840F44040E0
:101970001E4908601C48083000681B49083108608F
:101980000846006840F4004008600846006840F4DB
:10199000A05008601648091F0860081F006840F042
:1019A0008070091F086000BF0F48006800F00070D9
:1019B0000028F9D040F205700E4908600A48083046
:1019C000006820F0030008490831086008460068F4
:1019D00040F00200086000BF03480830006800F0D3
:1019E0000C000828F8D10CBD0038024000700040FF
:1019F00019544007003C02407047000010B51248DF
:101A0000006840F001001049086000200E490831CC
:101A100008600D4800680D4908400B4908600C48F3
:101A2000091D0860081F006820F48020091F086055
:101A3000002005490C310860FFF768FF4FF0006097
:101A40000449086010BD000000380240FFFFF6FEA8
:101A50001030002408ED00E010B540F225511B487D
:101A600000F08FF8D8B1194800F044F9C4B2184812
:101A7000B0F80004C0F30E0040F2FF3188420EDAE5
:101A80001349B1F80014C1F30E00411C104AB2F81A
:101A9000002461F30E020E49A1F800240C5440F218
:101AA00024410A4800F06DF801280DD10848B0F82B
:101AB000000420F4004000F500400549A1F80004AE
:101AC000024800F017F9C4B210BD00000010014038
:101AD0004204002010B540F225511B4800F051F897
:101AE000D8B1194800F006F9C4B21848B0F800049B
:101AF000C0F30E0040F2FF3188420EDA1349B1F80C
:101B00000014C1F30E00411C104AB2F8002461F326
:101B10000E020E49A1F800240C5440F224410A4858
:101B200000F02FF801280DD10848B0F8000420F487
:101B3000004000F500400549A1F80004024800F00B
:101B4000D9F8C4B210BD0000004800404000002099
:101B500021B1828942F40052828104E082894DF6EB
:101B6000FF731A408281704702460020B1F5007F62
:101B700000D100BF13880B400BB1012000E0002012
:101B8000704770B50246002400230025002040F66F
:101B90006A16B14200D100BFC1F3421501F01F0324
:101BA000012606FA03F3012D02D19689334006E09F
:101BB000022D02D1168A334001E0968A33400C127E
:101BC000012606FA04F41688344013B10CB1012042
:101BD00000E0002070BDF0B503460024002600257B
:101BE000002040F66A17B94200D100BF1846C1F381
:101BF000421401F01F06012707FA06F5012C01D156
:101C00000C3004E0022C01D1103000E014301AB185
:101C100007682F43076002E00768AF430760F0BD25
:101C20002DE9FF4705460E460024A14600BFA04609
:101C3000B08900B100BF2C8A24F44054F0880443DA
:101C40002C82AC8941F20C608443B088318908430E
:101C5000718908430443AC81AC8A24F44074B08990
:101C60000443AC826846FFF74FFD2048854202D00E
:101C70001F48854202D1DDF80C9001E0DDF80890A4
:101C8000A88900F4004040B109EBC90000EB09103D
:101C900031684900B0FBF1F707E009EBC90000EB40
:101CA000091031688900B0FBF1F76420B7FBF0F050
:101CB00004012009642101FB1078A88900F4004088
:101CC00040B1322000EBC800B0FBF1F000F007009B
:101CD000044308E0322000EB08106421B0FBF1F06F
:101CE00000F00F0004432C81BDE8FF870010014085
:101CF0000014014001468888C0F308007047C1F312
:101D00000802828070470FB470B586B006460CA8F2
:101D1000019073E00B9800785C281CD10B98401C54
:101D20000B9000786E2809D072280FD10D21304613
:101D3000FFF7E5FF0B98401C0B900BE00A213046A3
:101D4000FFF7DDFF0B98401C0B9003E00B98401C45
:101D50000B9000BF4BE00B980078252840D10B98E2
:101D6000401C0B900078642818D0732833D1019858
:101D700010C801900BE021783046FFF7C0FF00BF8C
:101D800080213046FFF7F0FE0028F9D0641C20784F
:101D90000028F0D10B98401C0B9020E0019820C83F
:101DA00001900A2202A9284600F05CFE02AC0BE07A
:101DB00021783046FFF7A3FF00BF80213046FFF7B0
:101DC000D3FE0028F9D0641C20780028F0D10B98AD
:101DD000401C0B9003E00B98401C0B9000BF06E0EA
:101DE0000B9810F8011B0B903046FFF788FF00BFDF
:101DF00080213046FFF7B8FE0028F9D00B98007814
:101E0000002887D106B070BC5DF814FB00BFFEE768
:101E100070B504460D4629462046FFF770FF00BF07
:101E200080212046FFF7A0FE0028F9D070BD70B5D4
:101E300006460C46002500BF615D3046FFF7E8FF0F
:101E40006D1C605D0028F7D100BF40213046FFF7D0
:101E50008BFE0028F9D070BD0FB4054B10B503A957
:101E6000044A029800F0EEF810BC5DF814FB000084
:101E7000F1290008340000200FB4084B10B504A964
:101E800002AA039800F0DEF8044602A9002000F040
:101E90005CFC204610BC5DF814FB00004B270008DA
:101EA00002E008C8121F08C1002AFAD17047704723
:101EB000002001E001C1121F002AFBD17047000081
:101EC0002DE9FF5F82B00021DDE90430020DDDF86D
:101ED00040B0034318D044F61050A2F2FF32424300
:101EE0001514119801281FD0A5EB0B00401C5FEAC8
:101EF000000A4FF000064E4FDFF83891B0465046CA
:101F000015D5CAF1000413E0119801244AA3012851
:101F100001D16FEA0B010298119AC0E90031C0E9C2
:101F2000024206B0BDE8F09FCBF10000DFE70446B7
:101F30000021404A491842EB0450CDE9001012E05C
:101F4000E00707D032463B4640464946FEF7A1FA35
:101F50008046894632463B4610461946FEF799FAB6
:101F600006460F466410002CEAD1DDE90401DDE9E4
:101F70000023BAF1000F06DAFEF78BFA42464B4611
:101F8000FEF787FA05E0FEF787FC42464B46FEF770
:101F900083FC04460E460022284BFEF759FB03D86B
:101FA0004FF0FF30014607E00022254B2046314626
:101FB000FEF7C8F9FEF7DFFC102409E0002C0ADB6D
:101FC0000A220023FEF772FB039B30321A55641E6F
:101FD00050EA0102F2D1641C039AC4F111031444C3
:101FE000119A012A03D0012208430DD10AE00843C7
:101FF00004D000204FF0110B119072E7A3EB0B05FA
:102000006D1E0DE05B4504DD4FF0000205F101059A
:1020100004E003DA4FF00002A5F10105002AECD03C
:1020200002981199C0E90231C0E9004579E7000042
:10203000000014400000F03F300000000000F043BA
:102040000000E03F2DE9FF4F95B09A4688460646CE
:102050000025EEE1252877D100242746F94A012101
:10206000039400E0044316F8013F203B01FA03F01B
:102070001042F7D130782A2811D06FF02F03307832
:10208000A0F13002092A16D8039A44F0020402EBA8
:10209000820203EB42021044761C0390EFE758F8EB
:1020A000042B0392002A03DA504244F400540390B4
:1020B00044F00204761C30782E2816D116F8010F51
:1020C00044F004042A280DD06FF02F023078A0F1DC
:1020D0003003092B09D807EB870302EB4303C7182A
:1020E000761CF3E758F8047B761C30786C280FD008
:1020F00006DC4C2817D068280DD06A2814D104E0DB
:10210000742810D07A280FD10DE044F400140AE0AE
:1021100044F4801401E044F440147278824202D105
:1021200004F58014761C761C307866280BD013DCFE
:10213000582877D009DC002875D04528F6D04628E5
:10214000F4D047281AD193E118E0632835D06428E9
:1021500079D0652812D18BE1702873D008DC67280C
:10216000F1D069286FD06E280DD06F2806D1ACE071
:1021700073282CD0752874D0782853D052461799DC
:1021800090476D1C54E1C4F30250022809D0032883
:102190000DD0D8F8001004280DD00D6008F1040807
:1021A00046E1D8F80010EA17C1E90052F6E7D8F87E
:1021B00000100D80F2E70D70F0E718F8041B8DF8A1
:1021C000001000208DF80100EB46012003E058F8D4
:1021D00004BB4FF0FF3061074FF0000102D40DE067
:1021E00009F101018946B9420FDA8145F8DB1BF894
:1021F00009100029F4D108E009F101018946814262
:10220000FADB1BF809100029F6D103985346A0EB1E
:10221000090721463846179A00F080FA284400EB57
:10222000090507E044E008E10DE01BF8010B524608
:1022300017999047B9F10109F7D25346214638461C
:10224000179AF2E039E00A21C4F302524FF0000B72
:102250000091022A06D058F8040BC117032A09D0AE
:102260000AE023E008F1070020F00702F2E802018B
:10227000904605E000B2C117042A01D140B2C1174F
:10228000002906DA0A460021404261EB02012D22B4
:1022900002E0220504D52B228DF80420012203E060
:1022A000E20701D02022F7E7914657E00A2100E03B
:1022B00010214FF0000B00910BE010214FF0000BAC
:1022C00044F004040827009103E008204FF0000BBD
:1022D0000090C4F30252022A05D058F8040B0021E2
:1022E000032A08D008E008F1070020F00702F2E80E
:1022F0000201904603E080B2042A00D1C0B24FF040
:10230000000922072AD53278702A07D0DDF800C0EC
:102310008CF0100C5CEA0B0C05D00EE040228DF81E
:102320000420012208E050EA010306D030238DF892
:1023300004308DF8052002229146009B83F00803AB
:1023400053EA0B030AD150EA010201D1620705D515
:1023500030228DF804204FF001097F1E3278582A70
:1023600004D039A20C920CAA02920BE03BA2F9E72E
:102370005B46009AFEF79AF90C9B9B5C029A521EF0
:102380000292137050EA0102F2D1029804A9081ACD
:1023900000F1200B600702D524F4803400E001270F
:1023A0005F4502DDA7EB0B0000E0002000EB0B0116
:1023B000009003984944401A0390E00306D4534622
:1023C0002146179A039800F0A9F90544002706E072
:1023D00001A85246C05D179990476D1C7F1C4F4560
:1023E000F6DBE0030CD553462146179A039800F01C
:1023F00095F9054404E030205246179990476D1C2A
:102400000099481E00900029F5DC08E00298029926
:1024100052460078491C0291179990476D1CBBF1F8
:102420000001ABF1010BF1DC5BE100F065F9054463
:10243000761C307800287FF40DAE19B02846BDE830
:10244000F08F00000928010030313233343536373F
:1024500038396162636465660000000030313233F0
:102460003435363738394142434445460000000090
:10247000600700D4062708F1070020F00700F0E805
:102480000223804603F0004C5FEA0C0001D097A0C5
:1024900009E0200501D596A005E0E00701D095A050
:1024A00001E0AFF24C001390307823F00043652830
:1024B0000CD006DC452809D046281DD047287FD1FE
:1024C0003BE0662818D067287AD136E00021112F2A
:1024D00001DB112000E0781CCDE9000104A90CA863
:1024E000FFF7EEFCDDE90D010C9A4FF0000B07F150
:1024F0000109109200914EE04FF000400097CDE9A5
:10250000011004A90CA8FFF7DBFCDDE90D020C9B10
:102510000F994FF0000B91461093009211B9791C5E
:1025200000EB0109B7EB090003D4C0F1FF3B07F151
:102530000109A9EB0700019042E0012F00DA012711
:102540000021112F01DD112000E03846CDE9000106
:1025500004A90CA8FFF7B4FCDDE90D010C9A009169
:102560004FF0000BB946109221070FD4009A4A454C
:1025700003DA914601E0A9F10109B9F1010F05DD86
:10258000109AA9F10101515C3029F4D0B84202DA65
:1025900010F1040F03DA0121CDE9011010E0002849
:1025A00003DC8344A9EB000102E0411C494500DD46
:1025B0008946A0EB0B00401C01904FF000400290B8
:1025C000200705D40198484502DB4FF0FF30019009
:1025D00000208DF84B0002980DF14B07B0F1004F31
:1025E00025D002200C902B200D90029800280CDAA8
:1025F000404202902D200D9007E00A210298FEF73C
:102600003FF83031029007F8011D0C99481E0C90DC
:102610000029F2DC02980028EFD1791E0D9808708D
:10262000307800F0200040F0450007F8020D11A8B6
:10263000C01BC01D02901398007800B1012000EB70
:102640000901019801EBE071029801440398401AD6
:10265000401E0390E00306D453462146179A039880
:1026600000F05CF805441398007818B152461799A9
:1026700090476D1CE00323D553462146179A0398D3
:1026800000F04CF805441BE0BBF1000F07DB00989D
:10269000584504DD1098179910F80B0001E01799C0
:1026A00030205246904701980BF1010B401E05F176
:1026B0000105019004D12E205246179990476D1CB8
:1026C000B9F10001A9F10109DEDC05E017F8010B01
:1026D0005246179990476D1C0299481E0290002996
:1026E000F4DC53462146179A03989EE62D0000001D
:1026F0002B000000200000002DE9F04104460025D9
:102700001E461746880404D405E039462020B04709
:102710006D1C641EF9D52846BDE8F0812DE9F04115
:10272000044600251E469046C80301D5302700E028
:102730002027880404D505E041463846B0476D1C83
:10274000641EF9D52846BDE8F0810A68531C0B6069
:102750001070704770B505460E46AC6806B970BD7E
:102760000CB9AE6009E000E0246814B120680028CC
:10277000FAD13146204600F0E7FF00BFEFE7000046
:1027800070B506460D46144604B970BD206A18B1EE
:102790000649206A09688847284600F06BF82062DD
:1027A00021463046FFF7D6FF00BFEEE7300000209D
:1027B00070B505460E4600F043F8044644B10320C8
:1027C000E060C4E9065628463146FDF7F7FE606131
:1027D000204670BD10B500F033F804460CB1062059
:1027E000E060204610BD000070B5044622E0256878
:1027F000A08900F4807020B9A06810B1A068FFF72C
:10280000F3FFA08900F4807028B9206918B10B4942
:10281000206909688847A08900F4007028B9206AF7
:1028200018B10649206A09688847204603490968A3
:1028300088472C46002CDAD170BD00003000002003
:1028400010B5282005490968884704461CB128218D
:102850002046FDF7D0FC204610BD00002C000020D3
:1028600010B50446002301221946204600F0D4FE8C
:1028700010BD000070B504462046FDF7E3FC451C82
:10288000284607490968884706460EB9002070BDEA
:102890002A4621463046FDF795FC3046F7E7000012
:1028A0002C0000202DE9F04104460E460CB12068B2
:1028B00010B90020BDE8F081A06806446068B0420D
:1028C00003DBA16820680844F4E7304600F0A4F96F
:1028D000074638460D490968884705463DB90C4901
:1028E000206809688847002060602060E2E725B121
:1028F0002846D4E90012FDF765FC054920680968FF
:10290000884767602560A0682844D3E72C00002032
:10291000300000202DE9F041C1F30A52A2F2FF3647
:102920002F4A304B0D460446142E2FDA002E12DAB1
:10293000FDF708FD00221346FDF78AFE4CD2002D5C
:10294000A4BF0024254647DA25F00040204318BFE5
:10295000254D41D018E0DFF894C02CFA06F705EABF
:10296000070C5CEA040C08BFBDE8F081FDF7EAFC47
:1029700000221346FDF76CFE2ED2002D03DA4FF431
:102980008010F0400544BD43002425E0332EC8BF2D
:10299000BDE8F081A6F1140C4FF0FF3727FA0CF7D1
:1029A0003C4208BFBDE8F081FDF770FD00221346F0
:1029B000FDF74EFE10D2002D0DDA142E08BF6D1C4F
:1029C00009D0C6F13400012101FA00F02044A042F0
:1029D00038BF6D1C0446BC4329462046BDE8F08143
:1029E0009C7500883CE4377E0000F0BFFFFF0F00BD
:1029F00070B504460D46E1B20548FFF780F900BF07
:102A000080210348FFF7B0F80028F9D0204670BDB8
:102A10000010014010B5002821D0114B0022001FEA
:102A2000196803E0814203D80A4649680029F9D1B0
:102A300052B11368841A9C4204D100681844106093
:102A4000104602E0506000E0186039B102680B1ACD
:102A5000934203D10B681A4402604968416010BD7B
:102A600038000020F0B503460D46164600272946DB
:102A70000A2E03D0002008702846F0BD33B930205C
:102A800001F8010B002008702846F6E7002B03DA56
:102A90002D2001F8010B5B4242F210720DE093FB16
:102AA000F2F404B937B104F1300001F8010B04FB72
:102AB000123301270A2092FBF0F2002AEFDC0020FB
:102AC00008702846D9E70000FEF7CEF8FEF750F868
:102AD000FEF740FAFEF75AFDFEF710FF2C4800887B
:102AE000FDF749FD06464FF08B41FDF7EDFB05462E
:102AF0002849FDF7B7FB04462046FEF7DFFC2648D1
:102B0000FEF750F8FEF70AFB41E02448B0F8000455
:102B10000121B1EBD03F1AD100202049B1F80014B7
:102B2000C1F30E011D4A505411461D48FFF77FF9AD
:102B30001A48B0F800046FF30E001849A1F8000419
:102B40000846B0F8000420F40040A1F8000415483D
:102B5000B0F80004C00BD0B100201249B1F8001445
:102B6000C1F30E010F4A505411460F48FFF75FF9A9
:102B70000C48B0F800046FF30E000A49A1F80004F5
:102B80000846B0F8000420F40040A1F80004BCE7B7
:102B9000240000203333534040420F004204002001
:102BA000004800404000002000100140F0B50B300C
:102BB000154D20F007010024144A0FE003688B42F2
:102BC0000BD38B4205D95E1A43184768C3E90067E7
:102BD00000E04368136002C004E0021D1068002892
:102BE000ECD12046002802D1286808B10020F0BDB1
:102BF000064A07481060074A121A22F00702C0E985
:102C0000002401202860D7E73C0000203800002085
:102C10004C080020480A00200146491E41EA610193
:102C200041EAA10141EA211141EA212141EA214180
:102C3000481C70472DE9FF4F85B092461E464FF065
:102C4000000B052003900598D0F80880D946002590
:102C500000200290019003E009F10109D8F80080FA
:102C6000B8F1000FF8D1B9F1000F16D12EB1032140
:102C70003046FFF717FE834604E003207E490968CB
:102C800088478346BBF1000F03D07CA15846FDF76F
:102C9000E0FA584609B0BDE8F08F002E57D0B5686D
:102CA00001213046FFF7FEFD04460CB90020F1E794
:102CB0005B202070B068401CB0600598D0F8088098
:102CC0002EE0334652460699491C404600F0A4FCCB
:102CD000304600F03CFDB060D8F80000F0B1BAF129
:102CE000000F01D0022000E0012003900399491C4D
:102CF0003046FFF7D7FD04460CB90020CAE72C2068
:102D000004F8010BBAF1000F02D0202004F8010BE7
:102D100000202070B16803980844B060D8F80080A3
:102D2000B8F1000F02D002980028CAD00221304624
:102D3000FFF7B8FD04460CB90020ABE75D2004F8AE
:102D4000010B00202070306800EB050B91E04FEA8A
:102D5000890049490968884707460FB9002099E763
:102D60004FEA89013846FDF746FA0598D0F8088001
:102D700021E0002352460699491C404600F04CFCD5
:102D8000049029466D1C049847F82100049870B1FE
:102D90000498FDF757FA801CBAF1000F01D0012109
:102DA00000E00021014403980844039001E0012061
:102DB0000290D8F80080B8F1000F02D002980028E5
:102DC000D7D0029820B92C490398096888478346D0
:102DD000BBF1000F01D101200290029890B10025B3
:102DE00008E057F8250020B157F825002449096864
:102DF00088476D1C4D45F4DB3846214909688847F2
:102E0000002047E75B208BF800000BF10104002055
:102E10002070002521E057F82500FDF713FA0190F6
:102E200057F825102046019AFDF7CCF90198044483
:102E3000A9F10100A8420AD02C2004F8010BBAF134
:102E4000000F02D0202004F8010B0020207057F85A
:102E500025000B49096888476D1C4D45DBDB38466A
:102E60000749096888475D2004F8010B002004F831
:102E7000010B58460EE700002C0000205B5D0000AF
:102E8000300000202DE9FC4782460E464FF0000935
:102E9000DAE906450022134620462946FDF7C0FB25
:102EA00013D12EB102213046FFF7FCFC814604E02D
:102EB00002204A49096888478146B9F1000F03D0CA
:102EC00047A00088A9F8000084E0DAF81400FDF7B4
:102ED00057FB074622462B46FDF7D5FA21F0004165
:102EE0000022404BCDE90001FDF79AFB23D83E4A72
:102EF0003E4B20462946FDF793FB1CD800223C4B55
:102F000020462946FDF7A4FB15D82EB115213046E1
:102F1000FFF7C8FC814604E015203049096888475E
:102F20008146B9F1000F55D032A14846DAF8142095
:102F3000FEF7A2FF4EE02EB140213046FFF7B2FC73
:102F4000814604E040202549096888478146B9F157
:102F5000000F3FD020462946FFF7DCFC07462246FB
:102F60002B46FDF790FA21F0004100221D4BCDE9E0
:102F70000001FDF755FB0FD825F0004127461E4AFA
:102F80001E4B3846FDF74CFB06D222462B461CA1B1
:102F90004846FEF771FF1DE025F0004127461A4A1A
:102FA0001A4B3846FDF73CFB07D325F000410022C1
:102FB000174B3846FDF74CFB06D222462B4615A18F
:102FC0004846FEF759FF05E022462B4612A1484627
:102FD000FEF752FF4846BDE8FC8700002C000020A9
:102FE000300000000000B03C0000C0FFFFFFDF41E8
:102FF0000000E0C12564000044F3C2E4E4E9634C4E
:10300000252E3066000000008DEDB5A0F7C6B03E5D
:1030100065CDCD4125650000256600002DE9FF4FF7
:1030200089B0884616461F460020089007900690F3
:103030004FF0070A00250998D0F808900020029068
:103040000190009004E00298401C0290D9F8009092
:10305000B9F1000FF7D10298002835D157B116B158
:1030600008F1040000E0032001463846FFF71AFC8F
:10307000069009E016B108F1040100E003210846BA
:10308000EA49096888470690069818B900200DB0EB
:10309000BDE8F08F069C7B2004F8010B66B10A2086
:1030A00004F8010B002503E0092004F8010B6D1C56
:1030B000A8F10100A842F7DC7D2004F8010B0020F4
:1030C00004F8010B0698E2E7002F77D0BD680EB137
:1030D000022000E0012082460AF101013846FFF794
:1030E000E1FB04460CB90020D1E77B2004F8010B7A
:1030F00016B10A2004F8010B00202070B868504473
:10310000B8600998D0F8089008F1010868E0B6B1F5
:1031100041463846FFF7C6FB04460CB90020B6E727
:103120000020039005E0092004F8010B0398401CDF
:10313000039003984045F6DBB8684044B8603946D0
:10314000D9F8200000F07EF9384600F000FBB860A6
:103150000EB1022000E00120824651463846FFF7BA
:10316000A1FB04460CB9002091E73A2004F8010BBA
:1031700016B1092004F8010BB8685044B8603B460A
:1031800032464146484600F047FA384600F0DFFA3A
:10319000B8600EB1012000E00020D9F8001009B19C
:1031A000012100E0002100EB010A0AF1010138468B
:1031B000FFF778FB044614B9002068E734E0D9F83B
:1031C000000010B12C2004F8010B16B10A2004F8FD
:1031D000010B00202070B8685044B860D9F8009006
:1031E000B9F1000F93D116B108F1010000E00220FF
:1031F00001463846FFF756FB04460CB9002046E767
:103200004EB1002503E0092004F8010B6D1CA8F164
:103210000100A842F7DC7D2004F8010B002020709B
:10322000386828440690FEE0029988007F490968C2
:1032300088470890089808B9002028E70299880074
:103240007A49096888470790079828B97849089803
:103250000968884700201AE7029881000898FCF75F
:10326000CAFF029881000798FCF7C5FF0998D0F8BB
:10327000089008F1010806B1C2442EE00021D9F8F7
:10328000200000F0DFF80490079941F825000023A2
:1032900032464146484600F0BFF929466D1C05906C
:1032A000089A42F82100049898B1059888B10598C9
:1032B000FCF7C8FF83460498FCF7C4FF0BEB000142
:1032C000891C16B108F1020000E000200844824485
:1032D00001E001200190D9F80090B9F1000FCDD1A3
:1032E000019820B9504651490968884706900698C8
:1032F00008B901200190019818B3002514E007983F
:1033000050F8250028B1079951F825004849096867
:103310008847089850F8250028B1089951F82500E9
:103320004349096888476D1C02988542E7DB40499C
:103330000798096888473E49089809688847002027
:10334000A5E67B21069801700698441C16B10A2058
:1033500004F8010B00202070002548E05EB1002039
:10336000039005E0092004F8010B0398401C03902A
:1033700003984045F6DB079951F82500FCF762FFFA
:103380000090079850F825102046009AFCF71AFF85
:10339000009804443A2004F8010B16B1092004F8FF
:1033A000010B089850F825102046FCF752FF0899A9
:1033B00051F82500FCF746FF04440298401EA8423D
:1033C00002D02C2004F8010B16B10A2004F8010BDE
:1033D00000202070079951F8250015490968884791
:1033E000089951F825001249096888476D1C029810
:1033F0008542B3DB0E490798096888470C4908984D
:10340000096888474EB1002503E0092004F8010B44
:103410006D1CA8F10100A842F7DC7D2004F8010B27
:10342000002004F8010B069831E600002C00002073
:103430003000002070B504460D462946206900F092
:1034400001F870BD2DE9F05F804689460027BB4634
:10345000454611E02878002802DD2878202805DB81
:103460002878222802D028785C2801D1012000E0A9
:10347000002040EA0B0B6D1C28780028EAD1BBF134
:10348000000F22D1A5EB0807B9F1000F05D0F91CF8
:103490004846FFF707FA064604E0F81C5849096851
:1034A0008847064616B90020BDE8F09F3446222022
:1034B00004F8010B41462046FCF7CBFE2220E055E4
:1034C0000021781C21543046EEE7B8F1000F16D1E8
:1034D000B9F1000F05D003214846FFF7E3F906468E
:1034E00004E0032046490968884706460EB90020D3
:1034F000DAE744A13046FCF7ACFE3046D4E7454657
:1035000095F800A00BE051463FA0FCF791FE08B1F2
:103510007F1C03E0BAF1200F00DA7F1D6D1CBAF1A9
:10352000000F02D0781C071EEDD1B9F1000F05D0B5
:10353000F91C4846FFF7B6F9064604E0F81C304986
:103540000968884706460EB90020ADE7344645466F
:10355000222004F8010B47E028781F280ADD28788C
:10356000222807D028785C2804D015F8010B04F82D
:10357000010B39E05C2004F8010B15F8011B8A46A9
:103580000C2919D006DC082912D0092920D00A29D3
:1035900022D115E00D2917D0222905D05C291BD195
:1035A0005C2004F8010B1EE0222004F8010B1AE055
:1035B000622004F8010B16E0662004F8010B12E00B
:1035C0006E2004F8010B0EE0722004F8010B0AE0F3
:1035D000742004F8010B06E052460DA12046FEF7C8
:1035E0004BFC641D00BF00BF28780028B4D1222006
:1035F00004F8010B002004F8010B304654E70000EA
:103600002C00002022220000225C080C0A0D090078
:1036100075253034780000002DE9F04104460F464E
:1036200090461D46002614B90020BDE8F081002D0B
:1036300046D0207B072842D2DFE800F00F1A04258D
:103640002B31390005212846FFF72CF906461EB11B
:1036500037A13046FCF7FDFD31E006212846FFF793
:1036600021F906461EB134A13046FCF7F2FD26E0F2
:1036700005212846FFF716F906461EB130A130464F
:10368000FCF7E7FD1BE029462046FFF7FBFB06465B
:1036900015E029462046FFF7CDFE06460FE02B46F3
:1036A000424639462046FFF7C5FA064607E02B4654
:1036B000424639462046FFF7B1FC064600BF34E0DB
:1036C000207B072830D2DFE800F0090E0413191F11
:1036D000270017A0FFF7CEF8064625E016A0FFF753
:1036E000C9F8064620E016A0FFF7C4F806461BE01E
:1036F00000212046FFF7C6FB064615E000212046C4
:10370000FFF798FE06460FE0002342463946204662
:10371000FFF790FA064607E0002342463946204666
:10372000FFF77CFC064600BF00BF30467DE7000087
:103730006E756C6C0000000066616C7365000000C3
:10374000747275650000000001604860704770B5D4
:1037500004460CB1206808B9002070BDA16820683B
:1037600045182846FCF76EFDA1680844F5E70000FF
:10377000903700080000002040000000A01E000854
:10378000D037000840000020080E0000B01E0008DE
:10379000007A030A00000000000000000102030498
:1037A00006070809000000000102030401020304E7
:1037B000060708090000000000000000AD2B00080B
:1037C000152A0008000000000000000000000000B2
:040000050800018965
:00000001FF
